:100000000C9434000C9451000C9451000C94510049
:100010000C9451000C9451000C9451000C9451001C
:100020000C9451000C9451000C9451000C946D00F0
:100030000C9451000C9451000C9451000C945100FC
:100040000C9451000C9451000C9451000C945100EC
:100050000C9451000C9451000C9451000C945100DC
:100060000C9451000C94510011241FBECFEFD8E026
:10007000DEBFCDBF11E0A0E0B1E0E6EDF1E002C0EF
:1000800005900D92A230B107D9F721E0A2E0B1E0CE
:1000900001C01D92A630B207E1F70E94C1000C9486
:1000A000E9000C94000088E09DE390938900809320
:1000B000880010928000E1E8F0E010821092850044
:1000C0001092840088E08083808185608083EFE6E1
:1000D000F0E080818260808308951F921FB61F9296
:1000E00011248F93809105018F5F8093050180918A
:1000F00005018C33C0F010920501809104018F5FDF
:1001000080930401809104018C3368F01092040103
:10011000809103018F5F80930301809103018831F7
:1001200010F0109203018F911F901FBE1F90189521
:100130009BB1880F880F9370892B8BB9089583B179
:1001400081FB992790F981FD16C0809100018130D3
:1001500091F42FEF39EF80E0215030408040E1F7FB
:1001600000C00000199907C0809102018F5F8330A1
:1001700028F48093020190930001089510920201E7
:10018000FACF8AB18C6F8AB9209A2198299A0E9455
:10019000530078940E949F0080910201813041F0C9
:1001A000823061F0811111C080910301289803C051
:1001B00080910401289A0E949800ECCF809105015B
:1001C0009091050190FFF2CFF5CF1092020180E0EF
:0601D000F2CFF894FFCF0E
:0201D600010026
:00000001FF
